:100000000C9499080C9487290C9460290C94C108CD
:100010000C94C1080C94C1080C94C1080C94C1083C
:100020000C94C1080C94C1080C94C1080C94C1082C
:100030000C94C1080C94C1080C94C1080C94C1081C
:100040000C9416290C94C1080C94D4290C94AE2954
:100050000C94C1080C94C1080C94C1080C94C108FC
:100060000C94062A0C94C108202000000000000017
:10007000FF07000000000000050520200000000030
:1000800004FF04FF0401FF0108FF0607FF0500004D
:1000900001200401040120040806022003070204D1
:1000A000052000000000000008010304000000001B
:1000B0000102040500000000010404010401010420
:1000C00004FF0401FF010000200500000000000003
:1000D0002004202020200000200400000000000058
:1000E000202004010401202008010203040500006F
:1000F00001022004FF040000060602FF07070000BB
:1001000001060204070500000304FF2020FF000091
:10011000FF0606070705000008060603070500009E
:100120000101022008200000080602030705000064
:100130000806020707050000A5A500000000000052
:10014000040500000000000020040101010400007B
:100150000404040101010000010420040101000065
:100160000106022007200000080602030404000024
:10017000080602FF20FF0000FF0605FF070200003F
:100180000801010304040000FF0102FF0405000050
:10019000FF0606FF07070000FF0606FF20200000FD
:1001A0000801010304020000FF04FFFF20FF00001C
:1001B00001FF0104FF0400002020FF0404050000EB
:1001C000FF0405FF20020000FF2020FF04040000C0
:1001D00008030502FF2020FFFF0220FFFF2003FF8E
:1001E0000801020304050000080602FF20200000A9
:1001F000080102200304FF04FF0602FF20020000A2
:10020000080606070705000001FF0120FF20000087
:10021000FF20FF0304050000032020052002082022
:10022000FF2020FF03080205030405082002000048
:1002300003040520FF200000010605080704000054
:10024000FF01FF0400000000010420202020010421
:1002500001FF04FF00000000080220200000000051
:100260002020200404040000202020204241534983
:100270004320504154434820202020202020524534
:1002800053455420414C4C204D454D4F5259202050
:10029000202020204E4F5420414C4C4F57454420A5
:1002A000202020202020202020202043414E434594
:1002B0004C2020202020202000002D2D2D2D2D2D04
:1002C0002D2D0CC3436F726F6E6143680CE0436861
:1002D0006F72757320200C2156696E7461674345F7
:1002E0000CE3414E4132333443680C0343452D4304
:1002F000686F35200C23436C6F6E6543686F0CA1EB
:10030000537570657243686F0CA34D6972616765C0
:1003100043680C4153746572656F43680C04436F06
:10032000726F6E6154720C61456E73656D626C65BF
:100330000C8353696C6B7943686F0C014465747569
:100340006E6520200CF04261737343686F200C11BE
:10035000426173734474756E0C7142617373456EC0
:1003600073620CC1466C616E676572200CD142618C
:100370007373466C6E670C025669627261746F200B
:100380000C6050686173657220200C80546865565B
:10039000696265200C4250746368534846540C826D
:1003A00048505320202020200C72426173735074F7
:1003B00063680C2044756F2D5472656D0C10547277
:1003C000656D6F6C6F200C40536C69636572202003
:1003D0000C6844756F50686173650C70576172707A
:1003E000506873720CB156696E464C4E47520CE120
:1003F00044796E464C4E47520C224F6374617665C9
:1004000020200C32426173734F6374760C624D6F1F
:100410006E6F507463680CA242656E642043686F0F
:100420000CC24D6F6A6F526F6C6C0CE252696E6752
:10043000204D6F640C4353746F6E655068730C638A
:10044000424620464C4720320EA04175746F2D5015
:10045000616E0EC0526F746F436C73740E204269EC
:100460007443727573680E40426F6D62657220202E
:100470000E604D6F6E6F53796E740E805A2D4F72F1
:1004800067616E2010C144756F446967446C101039
:1004900044656C6179202020108153746F6D704425
:1004A0006C79102153746572656F444C10E143619F
:1004B00072626F6E444C1060416E616C6F67444CA9
:1004C0001020546170654563686F10A154617065B8
:1004D000456368331002447269764563686F102281
:1004E000536C6170626B444C1042536D6F6F746853
:1004F000444C10A04D756C746954444C1080526586
:1005000076657273444C10624C6F2D4669446C7969
:100510001082536C6F774174444C10C044796E6103
:10052000446C792010A25472656D6F6C444C10407D
:100530004D6F6444656C61791061547267486C64F6
:10054000444C10C246696C50502D444C10E0466932
:100550006C746572444C10415068617365446C79E9
:1005600010E241757450616E444C1001506974631F
:1005700068446C79100349434544656C61791050B7
:100580004D6F64446C793220121848445265766588
:1005900072621280537072696E67202012815370EC
:1005A00072696E6736331221506C617465202020A9
:1005B0001240526F6F6D202020201260546C6564D1
:1005C000526F6F6D12A14368616D6265722012C136
:1005D0004C6F466952767262122048616C6C202022
:1005E0002020121048442048616C6C2012E14368BE
:1005F00075726368202012A041726E615276726239
:10060000120243617665202020201222416D62692A
:10061000656E636512E0414952202020202012C0FF
:1006200045726C7952666C6312424761746552760A
:100630007262126252766572527672621261536C05
:1006400070426B52767212824563686F20202020C0
:1006500012414D6F64527672622012A254726D6C18
:100660006F52767212C2486F6C79466C726212E2F7
:1006700044796E526576726212035368696D5276E0
:100680007262122350617274527672621243537016
:100690006163486F6C6512634D616E676C64537083
:1006A00012834475616C5276726202A05A4E5220D7
:1006B000202020200210434F4D50202020200220D7
:1006C000526F636B436F6D7002404D20436F6D70CE
:1006D000202002604F70746F436F6D700268313676
:1006E0003020434F4D5002704C696D697465722023
:1006F0000280536C77417474636B02C04E6F6973F0
:100700006547617402E0446972747947617402015B
:100710004F726E67654C696D022147726179436F54
:100720006D7002414475616C436F6D7004C1537408
:1007300047747247455104025374426173474551EF
:1007400004104C696E6553656C200420477261701B
:100750006820455104304273477270684551044027
:1007600050617261204551200448427350617261AA
:100770004551045053706C69747465720458426F2B
:1007800074746F6D204204604578636974657220EB
:100790000480436F6D62464C545204A04175746FDF
:1007A0002057616804B0427341757457616804C092
:1007B0005265736E616E636504E043727920202098
:1007C00020200401536C77466C74657204115A2022
:1007D00054726F6E202004214D2D46696C74657231
:1007E0000429412D46696C7465720431426173734A
:1007F0002043727904415354455020202020046145
:10080000534551466C7465720481526E646D466C3A
:10081000747204A1464379636C6520200810464435
:1008200020436F6D626F082044656C7578652D52AA
:100830000840464420566962726F08605553204252
:100840006C7565730880565820436F6D626F08A001
:100850005658204A696D692008C042474372756E38
:10086000636808E04D6174636833302008014361B8
:100870007244726976650821545720526F636B2069
:100880000841546F6E654369747908614857205375
:100890007461636B088154616E6772696E6508A14B
:1008A00042427265616B657208C14D534372756E49
:1008B000636808E14D5320313935392008024D5322
:1008C000204472697665082242474E2044525620E1
:1008D000084242472044726976650862445A2044BF
:1008E000726976650882416C69656E20202008A2D5
:1008F0005265766F203120200610426F6F73746549
:10090000722006204F767264726976650640542024
:1009100053637265616D0660476F7665726E6F72C4
:10092000068044697374202B202006A044697374E8
:100930002031202006C053717565616B202006E0D0
:1009400046757A7A536D6C65060147726561744D20
:1009500075660641486F74426F78202006615A2000
:10096000436C65616E2006815A204D503120202055
:1009700006A15A20426F74746F6D06C15A204472EA
:1009800065616D2006E15A2053637265616D060250
:100990005A204E656F73202006225A2057696C64D6
:1009A000202006214D65746C57524C4406425A2D46
:1009B0004C65616420200662457874726D447374DE
:1009C000068241636F757374696306A243656E7432
:1009D000476F6C6406C24E5943204D75666606E249
:1009E0005453204472697665060342475468727412
:1009F000746C06234F63742046757A7A0643424727
:100A0000204772696420066352656443726E6368AE
:100A1000068354424D4B20312E3506A35377744440
:100A20007269766506E3524320426F6F7374062441
:100A300044796E4472697665000143686F2D446C99
:100A40007920000243686F2D526576200003446CC4
:100A5000792D526576200004436F6D705068737273
:100A60000005436F6D70415761680006466C6E6704
:100A70005643686F0007436F6D702D4F4420000888
:100A8000506564616C5761680009506564616C432E
:100A90007279000A506564616C507463000B506495
:100AA0006C4D6E506974000C457869746572202035
:100AB000000D57616831303020203E3E2020452D0A
:100AC0004546464543545320202020203C3C46695F
:100AD0006C7465722020000000000000000054616A
:100AE0006C6B2D50646C524E444D54616C6B537062
:100AF0006163576F726D000000000000000000008D
:100B00000000000000000000000000000000486F2E
:100B1000745370696365000000000000000000006D
:100B200000000000000000000000000000000000C5
:100B300000000000000000000000000000000000B5
:100B400000000000000000000000000000000000A5
:100B50000000000000000000000000000000000095
:100B600000000000000046757A7A4261636B000065
:100B700000000000000000000000000000004375BD
:100B800073746F6D20205374617273686970000014
:100B9000000000000000572D536869667420436808
:100BA000616F73446C7943686F2D52657620466C93
:100BB0006E6772446C7900000000000000005472FF
:100BC000656D5068737200000000000000000000B6
:100BD000000000000000000000000000000047725C
:100BE000616E756C61725069746368202020526F69
:100BF000746172795A204563686F5A202020466CD0
:100C0000616E6765725A5472656D6F6C6F20566FB6
:100C10006C426F6F737453656C46785479708315AA
:100C20002D1B434245312A2B1C2C87881D40C0C1F7
:100C3000C2C3C4C5C66667686C656D6E75777C7D1A
:100C40007F8680201A1425020D03090B1E1F131620
:100C50002322172F343F333A393D504C4D495357D7
:100C600056C7C8C9CAA0A1A2A3A4A5A6A7A8B1A9EE
:100C7000B0B2B3B4AAABACADAEAF8A8E8D90959640
:100C8000989A9C9D93918C48110094979B8B9E9F62
:100C900092CB281989810000CC29000000000000B7
:100CA00000000000006900000000998F24203E2011
:100CB000202E2E2E2E2E20202E2E2E2E2E20203C8C
:100CC000202D2020203C3C3C3C3C2D2D3E3E3E3EF9
:100CD0003E2020202B202020202D2D2D2D2D2D2D90
:100CE0002D2D2D2D2D20202020434C454152494EA5
:100CF0004720414444524553532E2E2E201F1F1F80
:100D00000000000000181C1E1F1F1F1F1F1F1F1F99
:100D10001F1F0F070300000000001F1F1F1F1F1FC2
:100D20001F1F1E1C181F1F1F0000001F1F1F000079
:100D300000001F1F1F03070F1F1F1F1F1F534554B6
:100D400054494E472044454641554C542E2E2E2E94
:100D500020204348414E4745205041544348204FAE
:100D60004E4C592020204857204E4F542052454386
:100D70004F474E495A454420202020473320202009
:100D800020473520204D532D3730434D532D3530DE
:100D9000475A4F4F4D2D2020202D2D2D2D2D2D2DFF
:100DA0002D2D2D2D2D2020202B2020205741495442
:100DB000494E47205553422E2E2E20202020202001
:100DC0002020434F4E54524F4C4C4552202020205F
:100DD0002020202020202020204D49444920202070
:100DE00020202020202020204D5020454C454354D9
:100DF000524F4E4943532020202A2A202A2A204697
:100E000041494C454421202A2A20202A2A202055C5
:100E1000534220486F737420536869656C642020C6
:100E200020202020202020205341564544212020EE
:100E3000202020202020557365722049443A20301C
:100E400030303030303030302020204D61737369C5
:100E50006D6F2050726F636F70696F202020437533
:100E60007272656E74204657204465762E20627932
:100E7000206D617373696D6F70726F636F70696FEE
:100E80002E636F6D2020204D617373696D6F20504C
:100E9000726F636F70696F202020466972737420CF
:100EA000446576656C6F706564206279202020202F
:100EB00020322E322E3830302047504C2020202037
:100EC0002020204669726D776172652056657273C5
:100ED000696F6E2020434C4F4E452042414E4B20BF
:100EE000202020202020202041535349474E2050CD
:100EF000415443482020202020202041535349477B
:100F00004E2045464645435420202020202053456E
:100F10005420464F4F54535749544348455320207B
:100F200020544F47474C45204D4F4445202020201A
:100F3000202020204C4F4E472050524553532044F0
:100F4000454C41592020205354415254494E47208A
:100F50004D4F444520202020202052455345542009
:100F60004D454D4F525920202020202020464952E7
:100F70004D57415245202020202020202020202095
:100F800045584954202020202020202020202020A7
:100F90002020204E4F524D414C204D4F44452020A3
:100FA000202020202020452D5041544348204D4FE3
:100FB000444520202020202020452D4546464543FD
:100FC00054204D4F444520202020202053454C459F
:100FD000435420464F4F545357495443483A2053A3
:100FE000454C4543542042414E4B3A20202020207E
:100FF0002020464F4F5453574954434820782045AA
:1010000046462E3A2053454C4543542042414E4BD0
:101010003A2020202020202020414C4C204D4F44BD
:101020004553202020202020202020452D504154B1
:101030004348202D20452D45464645435453544FA3
:1010400047474C45204D4F44453A20202020202042
:1010500020464F4F545357495443484553204E550B
:101060004D3A20204348414E474520505245535366
:101070002044454C41593A5245534554204D454D25
:101080004F52593A20202020202043484F4F5345AB
:10109000204D4F44453A202020202020204E4F5202
:1010A0004D414C202D20452D454646454354532067
:1010B000204E4F524D414C202D20452D5041544340
:1010C00048202053454C4543542044455354204226
:1010D000414E4B3A202000000000240027002A0047
:1010E00000000000250028002B0000000000230065
:1010F0002600290004040404040404040202020279
:1011000002020303030303030102040810204080CA
:101110000102040810200102040810200000000849
:1011200000020100000304070000000000000000AE
:10113000252B11241FBECFEFD8E0DEBFCDBF25E0A9
:10114000A4E2B2E001C01D92A333B207E1F712E0BE
:10115000A0E0B1E0E8E5F8E702C005900D92A43206
:10116000B107D9F718E0C9E9D8E004C02197FE011A
:101170000E941D3CC839D107C9F70E941F2C0C944E
:101180002A3C0C9400008CBD9DBD0895962F9C7048
:10119000943049F46F70643099F0673089F06630AC
:1011A00019F1653029F1803F08F4807F803E41F0DD
:1011B00088F4803A29F030F4803811F0803941F415
:1011C00083E00895803C81F0803D71F0803BC1F365
:1011D00080E008958D3F50F4883F50F4823F81F3C2
:1011E000833F11F0813FA1F782E008958E3F80F3A5
:1011F00081E00895FC01538D448D252F30E0842F2C
:1012000090E0821B930B541710F0CF96089501972E
:101210000895FC01918D828D981761F0A28DAE0F1B
:10122000BF2FB11D5D968C91928D9F5F9F73928FA2
:1012300090E008958FEF9FEF0895FC01918D828DCE
:10124000981731F0828DE80FF11D858D90E008959B
:101250008FEF9FEF0895FC01918D228D892F90E0F3
:10126000805C9F4F821B91098F7399270895FC0121
:10127000A48DA80FB92FB11DA35ABF4F2C91848DF7
:1012800090E001968F739927848FA689B7892C9354
:10129000A089B1898C91837080648C93938D848DA7
:1012A000981306C00288F389E02D80818F7D8083AA
:1012B0000895EF92FF920F931F93CF93DF93EC016A
:1012C00081E0888F9B8D8C8D98131AC0E889F989ED
:1012D000808185FF15C09FB7F894EE89FF896083F0
:1012E000E889F98980818370806480839FBF81E071
:1012F00090E0DF91CF911F910F91FF90EF900895B3
:10130000F62E0B8D10E00F5F1F4F0F731127E02E8D
:101310008C8D8E110CC00FB607FCFACFE889F989C5
:10132000808185FFF5CFCE010E943709F1CFEB8D8B
:10133000EC0FFD2FF11DE35AFF4FF0829FB7F89499
:101340000B8FEA89FB8980818062CFCFCF93DF93B7
:10135000EC01888D8823B9F0AA89BB89E889F989CD
:101360008C9185FD03C0808186FD0DC00FB607FC02
:10137000F7CF8C9185FFF2CF808185FFEDCFCE0135
:101380000E943709E9CFDF91CF91089588EA93E071
:101390000E942B0921E0892B09F420E0822F089577
:1013A00080E090E0892B29F00E94C60981110C94FD
:1013B00000000895833081F028F4813099F0823064
:1013C000A9F008958730A9F08830C9F08430B1F4CD
:1013D000809180008F7D03C0809180008F77809303
:1013E0008000089584B58F7784BD089584B58F7D7E
:1013F000FBCF8091B0008F778093B00008958091EB
:10140000B0008F7DF9CFCF93DF93282F30E0F90123
:10141000E45EFE4E8491F901E85FFE4ED491F9013D
:10142000EC50FF4EC491CC23A1F081110E94DA0947
:10143000EC2FF0E0EE0FFF1FE651FF4EA591B491A7
:10144000EC91ED2381E090E009F480E0DF91CF9111
:10145000089580E090E0FACF1F93CF93DF93282F79
:1014600030E0F901E45EFE4E8491F901E85FFE4E42
:10147000D491F901EC50FF4EC491CC23A9F0162F62
:1014800081110E94DA09EC2FF0E0EE0FFF1FE0520D
:10149000FF4EA591B4918FB7F894EC91111108C04B
:1014A000D095DE23DC938FBFDF91CF911F910895FC
:1014B000DE2BF8CFCF93DF9390E0FC01E85FFE4E88
:1014C00024918C509F4EFC0184918823D1F090E0B0
:1014D000880F991FFC01EA52FF4EA591B491FC01BF
:1014E000E052FF4EC591D49161110EC09FB7F894A0
:1014F0008C91E22FE0958E238C932881E223E88360
:101500009FBFDF91CF9108958FB7F894EC91E22BB4
:10151000EC938FBFF6CF3FB7F89480919F039091E3
:10152000A003A091A103B091A20326B5A89B05C07A
:101530002F3F19F00196A11DB11D3FBFBA2FA92F52
:10154000982F8827BC01CD01620F711D811D911D4F
:1015500042E0660F771F881F991F4A95D1F70895BB
:101560008F929F92AF92BF92CF92DF92EF92FF92B3
:101570006B017C010E948B0A4B015C01C114D104F8
:10158000E104F104B9F00E948B0A681979098A090B
:101590009B09683E73408105910580F321E0C21AE2
:1015A000D108E108F10888EE880E83E0981EA11C9E
:1015B000B11CE4CFFF90EF90DF90CF90BF90AF9041
:1015C0009F908F9008952FB7F89460919B0370912E
:1015D0009C0380919D0390919E032FBF08950F93CC
:1015E0001F93CF93DF9382E00E94030AD1E000971C
:1015F00009F4D0E0209127032D17F1F12091860303
:1016000021113AC0892B41F086E00E94030AC1E013
:10161000892B41F4C0E006C086E00E94030AC1E0C5
:10162000892BC1F70E94E30A009124021091250240
:101630002091260230912702601B710B820B930BC5
:10164000683C710581059105A8F08091890390910E
:101650008A03CC23B1F0019790938A038093890386
:101660000E94E30A6093240270932502809326026D
:1016700090932702D0932703DF91CF911F910F9171
:1016800008950196E9CF089508950895DC01ED913C
:10169000FC910190F081E02D0994AF92BF92CF921E
:1016A000DF92EF92FF920F931F93CF93DF936C0122
:1016B0007B018B01040F151FEB015E01AE18BF0803
:1016C000C017D10759F06991D601ED91FC910190B5
:1016D000F081E02DC6010995892B79F7C501DF91CD
:1016E000CF911F910F91FF90EF90DF90CF90BF901F
:1016F000AF9008952091BE02260F3327331F213269
:101700003105ECF42091E202FC0190E080E024300D
:1017100069F082E00895A091BE022191AC01425689
:101720005D4FA40FB52FB11D2C930196861798F32A
:101730008091BE02680F6093BE0280E0089581E050
:1017400008951092E20281E08093E4021092E30295
:1017500061E082E10E942C0A61E083E10E942C0A90
:10176000E9EBF0E080818E7F808380818D7F8083B4
:1017700088E48093B80085E48093BC000895CF93FB
:10178000DF9391E090939D028823B9F0C091B80057
:10179000D091BA008091BC008A7B8093BC0060E04D
:1017A00082E10E942C0A60E083E10E942C0A0E94E0
:1017B000A10BD093BA00C093B800DF91CF910895E8
:1017C0000895E0910F0380910E03E81730F4F0E0E4
:1017D000E858FD4F808190E008958FEF9FEF0895C6
:1017E00090910F0380910E032FEF3FEF981748F46D
:1017F000E92FF0E0E858FD4F208130E09F5F9093A3
:101800000F03C901089580910E0390910F03891B66
:10181000990B0895CF92DF92EF92FF920F931F934F
:10182000CF93DF937C01CB018A01209177022223A1
:1018300089F0EB016B01C40ED51ECC15DD0569F0F6
:101840006991D701ED91FC910190F081E02DC701E4
:101850000995F3CF642F0E947A0BC801DF91CF91D5
:101860001F910F91FF90EF90DF90CF900895CF934D
:10187000DF931F92CDB7DEB76983209177022223D1
:10188000F9F020910C03203258F021E030E0FC0107
:101890003383228390E080E00F90DF91CF91089511
:1018A00080910D03E82FF0E0E95AFD4F9981908374
:1018B0008F5F80930D0380930C0381E090E0ECCF69
:1018C00061E0CE0101960E947A0BF7CFCF92DF92B2
:1018D000EF92FF920F931F93CF93DF93FC01C4818C
:1018E00021E020937702C093560210920D031092CC
:1018F0000C038385682B85E494E00E94370CD0911B
:101900000C03D13208F092C00E948B0A6B017C015B
:101910008091E202811165C082E08093E20281E061
:101920008093E4028FEF8093E10210920603D0933C
:101930000503A7E5B2E0E5EEF2E080E0D81385C04C
:101940001092070380910703CC0FC82BC0930703A5
:101950008091E302813009F07CC01092E3020E9482
:101960008B0A6B017C01809107038093BB008091FF
:10197000990290919A02A0919B02B0919C02892BAE
:101980008A2B8B2B99F00E948B0A0091990210915F
:101990009A0220919B0230919C026C197D098E095C
:1019A0009F090617170728073907E0F18091BC0047
:1019B00083FDD9CF85EC8093BC000E948B0A6B011C
:1019C0007C018091E202823009F445C08091E102FD
:1019D0008F3F61F18091E102803241F18091E1021B
:1019E00025C08091990290919A02A0919B02B0919A
:1019F0009C02892B8A2B8B2B09F48ACF0E948B0A9D
:101A00000091990210919A0220919B0230919C02C0
:101A10006C197D098E099F090617170728073907D2
:101A200008F076CF809198020E94BF0B10920D03B0
:101A300010920C0310927702DF91CF911F910F91BA
:101A4000FF90EF90DF90CF9008959D9191938F5FDD
:101A500075CF85EEB0CF8091990290919A02A091B6
:101A60009B02B0919C02892B8A2B8B2B09F4A9CF66
:101A70000E948B0A0091990210919A0220919B0278
:101A800030919C026C197D098E099F090617170772
:101A90002807390708F095CFC5CFCF93DF93EC0126
:101AA0008A819B81DC01ED91FC910480F581E02D20
:101AB0006C81099581E08E831C821F82C35ADF4F9F
:101AC000188280E0DF91CF910895FC018481089510
:101AD0000895DF92EF92FF920F931F93CF93DF93BE
:101AE000EC0185E0E62EF12CFE01869FE00DF11D54
:101AF0001124908596FF24C0192F177001E085E00E
:101B0000D82E8FEF800F8F3008F001E0602F70E04B
:101B1000062FD69EF001D79EF00D1124EC0FFD1F6D
:101B200080858695869586958770181701F16F5F79
:101B30007F4F603168F38D81811302C011501D8386
:101B400085E08E9DF0018F9DF00D1124EC0FFD1F9F
:101B5000108681E0818712862296D783C683DF9123
:101B6000CF911F910F91FF90EF90DF900895CE01DC
:101B70000E94690DC6CFFC0120812EBD9B01215022
:101B8000310941F051810DB407FEFDCF4EB55EBD68
:101B90004193F5CF61507109860F971F0DB407FE71
:101BA000FDCF2EB5FC0120830895FC0121E06134B6
:101BB00099F49C01255B3F4F61E0AC014E5F5F4FA4
:101BC0001586668717865487438735962E173F07F5
:101BD000B9F7FC01158208953585631729F02F5F49
:101BE00035962031C9F70895622F0C94690DCF9373
:101BF000DF93FC0167FD12C0283080F4442319F004
:101C00008581873059F0EF01A1E0B0E08D85882310
:101C100049F111962596A031B105C1F780E018C0B1
:101C200085E08A9FE0018B9FD00D1124CE0FDF1F2E
:101C3000442389F081E4888785818F5F858325E04F
:101C40002A9FC0012B9F900D1124E80FF91F80855A
:101C5000DF91CF91089581E08887F1CF2770687B6D
:101C6000622B0FC06623E1F26770660F660F660F86
:101C70004423A1F3606485818F5F85838770687FCB
:101C8000682B25E02A9FC0012B9F900D1124E80F9F
:101C9000F91F6087862FDCCFFC0121E0611102C0B3
:101CA000069608953585631739F02F5F35962031F4
:101CB000C9F790E080E00895069635E0239F800DF7
:101CC000911D1124089580E0089580E0089590E02A
:101CD00080E0089580E0089580E0089581E008950F
:101CE00008952A9808952A9A089580916203909100
:101CF000630301969093630380936203209119011B
:101D0000281719063CF48091180190E09093630322
:101D10008093620308958091620390916303019719
:101D2000909363038093620320911801281719068A
:101D300041F03CF08091190190E09093630380930F
:101D4000620308950F931F93CF93DF9387E00E9460
:101D5000030A81112AC08091860381112AC081E083
:101D60008093860310E0D0E0C0E087E00E94030A81
:101D7000082F219661E070E080E090E00E94B00AB8
:101D8000013061F41F5F153050F0C039D14059F077
:101D900081E0DF91CF911F910F91089510E0C0393C
:101DA00081E0D80711F782E0F4CF813011F410926E
:101DB000860380E0EECF08950F931F93CF93DF93B8
:101DC000D82FC62F8A0180E591E00E94C3080E94A7
:101DD000710ED260DEBDF8018C2F882339F00DB46E
:101DE00007FEFDCF91919EBD8150F7CFC00FD12F3F
:101DF000D11D0DB407FEFDCF0E94730ECE01DF9101
:101E0000CF911F910F9108950F931F93CF93DF935D
:101E100000D0CDB7DEB7182F062F80E591E00E94E5
:101E2000C3080E94710E126019830A8362E070E099
:101E3000CE0101960E94BB0D0E94730E0F900F9071
:101E4000DF91CF911F910F9108958EBD00000DB4C9
:101E500007FEFDCF8EB50895CF93C82F80E591E0A2
:101E60000E94C3080E94710E8C2F0E94250F80E0F3
:101E70000E94250FC82F0E94730E8C2FCF910895BA
:101E80002F923F924F925F926F927F928F929F928A
:101E9000AF92BF92CF92DF92EF92FF920F931F9378
:101EA000CF93DF9300D000D01F92CDB7DEB79D83D4
:101EB0008C834B017A016901FC0111818FEF810F45
:101EC000803408F0C4C00E94E30A2B013C01F8E80A
:101ED0004F0EF3E15F1E611C711CEC81FD8182815C
:101EE00060E480FD60E888EE0E94040F312C812FB1
:101EF00090E09A838983E114F10409F445C00981D3
:101F00001A81E016F10608F487010B83A601602F01
:101F100080E10E94DC0E602F88E30E94040FEC81B8
:101F2000FD816081606280EF0E94040F88EC0E9456
:101F30002C0F87FFFBCF60E888EC0E94040F88EF2E
:101F40000E942C0F8F70382EB12CA12C212C332005
:101F5000E9F10E94E30A641975098609970997FF58
:101F600035C0F6E03F1609F45DC02EE0321699F157
:101F700084E0381209C09FEFA91AB90A81149104AC
:101F800071F1A814B90459F588EF0E942C0FEC8167
:101F9000FD81928185FB90F99283832D0F900F90A4
:101FA0000F900F900F90DF91CF911F910F91FF90A5
:101FB000EF90DF90CF90BF90AF909F908F907F90E9
:101FC0006F905F904F903F902F900895E01AF10A24
:101FD000C00ED11E90CF2394E3E02E16A9F260E04C
:101FE00088E30E94040FF601608180E10E94040FE3
:101FF0006B8188E30E94040FEC81FD816081606247
:1020000080EF0E94040F88EC0E942C0F87FFFBCF0B
:1020100060E888EC0E94040F88EF0E942C0F8F70FC
:10202000382E95CF88EF0E942C0F85FB882780F9EA
:10203000F1E08F27EC81FD81928180FB90F9928302
:1020400060E490FD60E888EE0E94040FC8CF8AED3E
:10205000382EA3CFAF92BF92CF92DF92EF92FF9232
:102060000F931F93CF93DF93EC01B62EA42E69013B
:102070000E944C0E7C0186EDE114F10409F447C086
:10208000D701ED91FC91119787ED309709F43FC08E
:1020900013969C9180E0981731F02081A21629F0C8
:1020A00033968F5FF8CFF0E0E0E0D601ED93FC933C
:1020B0008BED309761F1228126952695203108F02D
:1020C0002FE081E090E0A0E0B0E004C0880F991F0D
:1020D000AA1FBB1F2A95D2F70197F801918380832D
:1020E0006B2D80EE0E94040F88ED0E942C0FD7010B
:1020F00014969C91682F697F992329F0CA58DF4F65
:1021000068816260682B88ED0E94040F80E0DF9197
:10211000CF911F910F91FF90EF90DF90CF90BF90E4
:10212000AF900895CF92DF92EF92FF920F931F939B
:10213000CF93DF9300D000D0CDB7DEB7790168012F
:102140001A8219821C821B828E010D5F1F4F9E0115
:102150002F5F3F4F0E942A10811108C06B817C8144
:102160009601A70189819A810E94400F0F900F90DC
:102170000F900F90DF91CF911F910F91FF90EF90F3
:10218000DF90CF9008958F929F92AF92BF92CF929F
:10219000DF92EF92FF920F931F93CF93DF93882EDE
:1021A000962E5A010E94E30A6B017C0128E8C20EB8
:1021B00023E1D21EE11CF11C10E000E0D0E0C0E001
:1021C00098280E94E30A6C197D098E099F0997FFE0
:1021D0001EC0692D80EF0E94040F0E94E30A6C1953
:1021E0007D098E099F0997FF09C088EC0E942C0F7A
:1021F00087FFF3CF60E888EC0E94040F88EF0E940D
:102200002C0FC82FCF70C43081F0CE30B9F08C2F96
:10221000DF91CF911F910F91FF90EF90DF90CF90C2
:10222000BF90AF909F908F9008950F5F1F4FA114A4
:10223000B10439F20A151B0521F6E9CFDF5FD3306F
:1022400009F0BFCFE4CF88EF0E942C0F807C803450
:10225000B1F018F4882301F10895803819F0803C1A
:10226000C9F0089588ED0E942C0F81FD0DC069EC26
:1022700088ED0E94040F82E08093A703089588ED03
:102280000E942C0F81FDF3CF6BEC88ED0E94040FB0
:1022900083E0F2CF81E0F0CF61ED88ED0E94040F82
:1022A0001092A70308958F929F92AF92BF920F93BF
:1022B0001F93CF93DF93CDB7DEB7A1970FB6F894F6
:1022C000DEBF0FBECDBF19A2423008F44AE08E0136
:1022D0000F5D1F4F842E912CB12CA12CA5019401D0
:1022E0000E94FB3BE62FB901CA01EA3044F5E05DEC
:1022F000D801EE938D01232B242B252B79F790E029
:1023000080E0109769F0FD0101900020E9F7319716
:10231000AF014A1B5B0BBD0187E295E00E944D0BAC
:10232000A1960FB6F894DEBF0FBECDBFDF91CF915F
:102330001F910F91BF90AF909F908F900895E95C8F
:10234000D7CFFC0101900020E9F73197AF01481B7E
:10235000590BBC0187E295E00C944D0BCF92DF92B4
:10236000EF92FF92CF93DF936C01990FEE08FF0875
:10237000F7FE19C06DE287E295E00E94460BEC0182
:1023800066277727CB016C197D098E099F094AE0E2
:102390000E9453118C0F9D1FDF91CF91FF90EF9002
:1023A000DF90CF9008954AE0C701B601DF91CF9149
:1023B000FF90EF90DF90CF900C945311682F70E056
:1023C00090E080E04AE00C945311CF92DF92FF92AC
:1023D0000F931F93CF93DF93F62E01E0C82FD0E029
:1023E000CC0FDD1FCA5FDA4F6E0188819981DC0155
:1023F000ED91FC910280F381E02D2F2D40E060E013
:102400000995182F803E49F561E088EE0E94040F7F
:1024100066E670E080E090E00E94B00AF6018081FC
:102420009181DC01ED91FC910190F081E02D2F2D47
:1024300040E060E00995182F8D3041F58FEF800F57
:10244000833088F061E088EE0E94040F66E670E059
:1024500080E090E00E94B00A10C08D3061F48FEFF0
:10246000800F833050F464E670E080E090E00E94DA
:10247000B00A0F5FBACF882389F2812FDF91CF9105
:102480001F910F91FF90DF90CF9008958823A9F3BB
:10249000D9CF0F931F93CF938C01C62F0E94660C48
:1024A0006C2F6460C8010E94660C6C2F6B7FC801A2
:1024B0000E94660C83EC90E00197F1F7CF911F9199
:1024C0000F9108950F931F93CF93DF938C01D62F15
:1024D000C42F607F642B0E94491280E1D89FB00115
:1024E00011246C2BC801DF91CF911F910F910C9497
:1024F0004912CF93DF93CDB7DEB728970FB6F89484
:10250000DEBF0FBECDBF98E0E3E2F1E0DE01119641
:1025100001900D929A95E1F790912F05961710F47E
:102520006FEF690F262F30E0220F331F41E050E09C
:102530004C0F5D1F240F351FF9016081680F606823
:1025400040E087E295E028960FB6F894DEBF0FBE14
:10255000CDBFDF91CF910C946212809197038230AE
:1025600081F460E080E00E94791285ED91E00E94A4
:10257000A11160E082E10E94791282E092E00C9465
:10258000A111813079F460E08AE00E94791284EE32
:1025900091E00E94A11160E08EE00E9479128FED1F
:1025A00091E0EDCF0895CF938091220160E08430D7
:1025B00060F08CE00E94791289EE91E00E94A111F6
:1025C00080919403CF910C94DE118FE00E947912D8
:1025D0008CEE91E00E94A111809194030E94DE1183
:1025E000C0E06C2F80E00E9479128C2F0E94DE11D7
:1025F000CF5FC430B1F7CF910895682F80E00E947B
:10260000791280EF91E00C94A111CF93C82F82E052
:102610000E94FD1262E089E00E9479128C2FCF9116
:102620000C94DE1141E00E94621281E090E0089576
:102630003F924F925F926F927F928F929F92AF9252
:10264000BF92CF92DF92EF92FF920F931F93CF939F
:10265000DF93CDB7DEB728970FB6F894DEBF0FBE75
:10266000CDBFA62E742E7C01042F10E00F5F1F4FEC
:10267000F70181917F01882309F44DC09FE9980FEC
:102680009A3108F4805290EE980FB12C903408F0F3
:1026900040C0F8E08F02C0011124DE01119630E045
:1026A00020E0B12C6D0188599040FC01E20FF31F2E
:1026B000E491ED93E111B3942F5F3F4F2830310542
:1026C000A1F7B6948A2D8B0D9927991F4C01572C91
:1026D000E0E05016110609F0E4F46A2C4E2E4A1878
:1026E000342C360C681419048CF4652D862D0E9448
:1026F000791293E1961540F0F601E30DF11D60812A
:1027000087E295E00E9412136394EACF5394E32D7D
:10271000E0CFAB0CADCF28960FB6F894DEBF0FBE5E
:10272000CDBFDF91CF911F910F91FF90EF90DF9080
:10273000CF90BF90AF909F908F907F906F905F9061
:102740004F903F900895CF93DF9300D000D000D0FA
:102750001F92CDB7DEB720911B018091620390914B
:10276000630338EA320F323010F0213661F46AE048
:1027700070E00E94E73B605D6983805D8A831B8215
:1027800040E067E025C02B3591F763E070E00E94E0
:10279000E73B282FCB0101968436910511F481E0A7
:1027A00090E037E0EEEFF1E0DE01119601900D923E
:1027B0003A95E1F76AE070E00E94D33B605D6B837D
:1027C000805D8C838DE28D832F5C2E8340E062E000
:1027D000CE0101960E94181327960FB6F894DEBF1B
:1027E0000FBECDBFDF91CF91089580913F0291E060
:1027F000892780933F0281110C94A31380E00E94EB
:10280000FD1281E00C94FD1240E061E087E295E06A
:102810000E9462128BE39FE10197F1F7089582E035
:102820000E94FD1262E086E00E94791260911D0113
:1028300070911E0190E080E04AE00E945311809167
:102840001D0190911E0162E0883E934038F08BE0BC
:102850000E94791285E092E00C94A1118AE0F8CFF1
:102860002F923F924F925F926F927F928F929F92A0
:10287000AF92BF92CF92DF92EF92FF920F931F938E
:10288000CF93DF937B013A016901F901A080B18008
:10289000FB013180F90111821082FB01828160E12C
:1028A00081FD60E288EE0E94040F2A2CA301F7014B
:1028B000608180E00E94C310582EF6E08F1310C094
:1028C00088EF0E942C0FF70192819D7F84FF926018
:1028D000928360E191FD60E288EE0E94040FE6CFF2
:1028E000811150C088EC0E942C0F82FF5FC080E3F2
:1028F0000E942C0F482E8A151B0411F008F0422C60
:10290000F60180819181E501C81BD90BD7FF02C078
:10291000D0E0C0E0842C912C8C169D060CF4E401D0
:1029200080E591E00E94C3080E94710E88E00E9439
:10293000250FAE0170E060E0C8010E94233C2097A3
:1029400021F0BE01C8010E94BB0D0C0F1D1F0E948B
:10295000730E64E088EC0E94040FF601808191817F
:10296000880E991E91828082431420F08A149B0461
:1029700008F49CCF88EF0E942C0FF701928184FB12
:1029800091F99283852DDF91CF911F910F91FF9047
:10299000EF90DF90CF90BF90AF909F908F907F90FF
:1029A0006F905F904F903F902F90089580EF582E3A
:1029B000E9CFCF92DF92EF92FF920F931F93CF93C5
:1029C000DF9300D000D000D0CDB7DEB77C01E0911E
:1029D000AF048FEF8E0F8F3308F044C0F0E0EE5A53
:1029E000FB4F858D8823D9F1E091AF04AE2FB0E085
:1029F000AE5ABB4F5D966C9182E08E0F8093AF0410
:102A0000EF5FF0E0EE5AFB4F858DF7018083E09198
:102A1000AF0491E09E0F9093AF04F0E0EE5AFB4FAD
:102A2000958DF7019183E091AF0491E09E0F909313
:102A3000AF04F0E0EE5AFB4F958DF7019283269696
:102A40000FB6F894DEBF0FBECDBFDF91CF911F91BF
:102A50000F91FF90EF90DF90CF900C94C608868D79
:102A60008111C2CF1092AF048091640490E09E83E4
:102A70008D83C0905404D0905504409163046091BC
:102A800056041C821B821A8219828E010F5F1F4F0F
:102A90009E012D5F3F4FC6010E942A1081110CC07C
:102AA00049815A816B817C810FE614E09E012B5F86
:102AB0003F4FC6010E9430142D813E812C333105D9
:102AC00040F4F901E159FB4F108220593B4FF901C5
:102AD0001082811110C080916F04811185CF809187
:102AE0007004811181CF8091710481117DCF80911B
:102AF0007204811179CF80E026960FB6F894DEBF7C
:102B00000FBECDBFDF91CF911F910F91FF90EF903E
:102B1000DF90CF9008957F928F929F92AF92BF9255
:102B2000CF92DF92EF92FF920F931F93CF93DF9399
:102B3000CDB7DEB7C85CD1090FB6F894DEBF0FBEC3
:102B4000CDBF8C01E62E4A01722EF12CD12CC12C66
:102B5000CE0101965C0180915904FE14D8F4C8148A
:102B6000D904C0F4882391F0C5010E94D9148823A8
:102B700069F0D801AF0DB11DF5019E2F9A19981774
:102B800018F491919D93F9CFF80EE5CF9FEFC91AF4
:102B9000D90AE1CF80915904882331F0CE01019602
:102BA0000E94D9148111F6CFFE1012C081E0772067
:102BB00081F0F8018081803F59F48181823541F4B0
:102BC0008281811105C081E0238190911B0129132D
:102BD00080E0C853DF4F0FB6F894DEBF0FBECDBF05
:102BE000DF91CF911F910F91FF90EF90DF90CF90E9
:102BF000BF90AF909F908F907F9008950F931F93F9
:102C0000CF93DF93CDB7DEB7C85CD1090FB6F89488
:102C1000DEBF0FBECDBF182F00E08091590488237E
:102C2000B9F0CE0101960E94D91401110FC001E044
:102C300081110CC0C853DF4F0FB6F894DEBF0FBE32
:102C4000CDBFDF91CF911F910F9108958111E5CFF5
:102C5000002381F3612F70E090E080E00E94B00AD1
:102C6000E9CF4F925F926F927F928F929F92AF9235
:102C7000BF92CF92DF92EF92FF920F931F93CF9369
:102C8000DF93CDB7DEB72E970FB6F894DEBF0FBE39
:102C9000CDBF3C01F42E422E502E1E861D861C8672
:102CA0001B868E01055F1F4F9E01235F3F4F40E053
:102CB0000E942A10182F811168C0F9824A825B8213
:102CC000EC821E821D82D886CF82AE014F5F5F4F9D
:102CD00068E080E20E94DC0E4B855C8560E080E16C
:102CE0000E94C310182F811150C081149104A1F1CA
:102CF000ED85FE858281F7FE35C082608283EE24F9
:102D0000E394C114D10409F458C0BA86A9864B854E
:102D10005C856D857E8584019E01275F3F4FC301E1
:102D20000E943014182F863071F488EF0E942C0F07
:102D3000ED85FE8585FB882780F98E25928180FBB5
:102D400091F99283DECF811120C089859A85C81AB6
:102D5000D90A8A159B05A8F64B855C85F7FE10C03D
:102D600080EA0FC0816082836B857C859401A50118
:102D7000CF010E94400F182F811107C04B855C8541
:102D800080E860E00E94C310182F812F2E960FB6A6
:102D9000F894DEBF0FBECDBFDF91CF911F910F9191
:102DA000FF90EF90DF90CF90BF90AF909F908F906B
:102DB0007F906F905F904F9008954B855C851123B5
:102DC00079F2E3CF8F929F92AF92BF92CF92DF9230
:102DD000EF920F93CF93912C812CB12CA12CD12C5D
:102DE000C12CE12C062F25E040E060E00E94311666
:102DF000C82F6CE271E080E090E00E94B00A8C2F56
:102E0000CF910F91EF90DF90CF90BF90AF909F90B8
:102E10008F9008958F929F92AF92BF92CF92DF9240
:102E2000EF920F9349015A016A01EE24E39400E006
:102E300026E040E80E9431160F91EF90DF90CF908E
:102E4000BF90AF909F908F9008955F926F927F9206
:102E50008F929F92AF92BF92CF92DF92EF92FF92AA
:102E60000F931F93CF93DF93CDB7DEB765970FB660
:102E7000F894DEBF0FBECDBF83B1182F127081FD55
:102E80000CC088EC0E942C0F85FF03C00E94231108
:102E900010E2612F88EC0E94040F8091A70381301B
:102EA00041F058F0823009F461C0833069F010E0DD
:102EB00022C083E180935104FACF80915104807F36
:102EC0008031A9F381E1F6CF11E080915104807F38
:102ED000803189F40E94E30A68537F4F8F4F9F4FE0
:102EE0006093A3037093A4038093A5039093A60318
:102EF00080E28093510496E0E92E95E0F92E670177
:102F0000D6018D919D916D01009739F0DC01ED9115
:102F1000FC910680F781E02D0995B6E2CB16B5E06D
:102F2000DB0671F780915104803409F46BC000F521
:102F3000803209F451C0803309F45EC08131B1F5AB
:102F400010922605F701819191917F01009739F048
:102F5000DC01ED91FC910480F581E02D0995CE1402
:102F6000DF0481F782E18093510420C010E0ADCFEF
:102F7000813509F456C0803809F466C08035B1F453
:102F800088EC0E942C0F86FF11C081E580935104CC
:102F90000E94E30A6C5E7F4F8F4F9F4F6093A303A5
:102FA0007093A4038093A5039093A60365960FB630
:102FB000F894DEBF0FBECDBFDF91CF911F910F916F
:102FC000FF90EF90DF90CF90BF90AF909F908F9049
:102FD0007F906F905F9008950E94E30A0091A30391
:102FE0001091A4032091A5033091A603601B710BDF
:102FF000820B930B97FDDACF61E088EE0E94040FFD
:1030000080E4B1CF88EE0E942C0F80FDCFCF88EDF9
:103010000E942C0F682F686088ED0E94040F80E5E5
:10302000A2CF0E94E30A8090A3039090A403A090F3
:10303000A503B090A603681979098A099B0997FD31
:10304000B5CF80E8809351041B8A88E08C8B8CE399
:103050008D8BC090B604D090B704CE014396909368
:10306000B7048093B6041093BA049E012F5F3F4FBC
:1030700042E150E060E080EB94E00E940A17082FE4
:10308000D092B704C092B604811150C0A984BA840A
:103090008B849C846D805E8086E0C82E85E0D82E6F
:1030A000712CF60180819181009709F041C07394E1
:1030B000F2E0CF0ED11C80E17812F3CFF7018081CE
:1030C0009181009709F076C00F5FF2E0EF0EF11CDE
:1030D0000031A1F78091B6049091B704892B09F4CF
:1030E00059C01093BA0420E040E060E080EB94E027
:1030F0000E94F70DF82E882309F44CC0682F80EB4E
:1031000094E00E944C0E009709F444C0FC01148323
:103110006F2D80EB94E00E94E216082F882309F4BB
:1031200084C06F2D80EB94E00E94D50D802F2FC0BE
:10313000DC01ED91FC910084F185E02D0995811170
:10314000B6CFF60180819181DC01ED91FC91008880
:10315000F189E02D652D0995882309F4A8CFF601A2
:1031600080819181DC01ED91FC910484F585E02D55
:10317000A401B5010995882379F0612F872D0E945C
:10318000E511813D09F493CF882309F44EC0823DB7
:1031900009F40CCF80EAE7CEF60180819181DC0151
:1031A000ED91FC910684F785E02D662D099581113E
:1031B000E4CF7DCFDC01ED91FC910084F185E02D21
:1031C0000995811181CFF70180819181DC01ED9119
:1031D000FC910088F189E02D652D0995811109C0C8
:1031E000612F802F0E94E511982F977F913D61F606
:1031F0006BCFF70180819181DC01ED91FC9104841A
:10320000F585E02DA401B501099581115DCFF70188
:1032100080819181DC01ED91FC910684F785E02DA0
:10322000662D09958823E1F24FCF80E99CCE4F921D
:103230005F927F928F929F92AF92BF92CF92DF92D6
:10324000EF92FF920F931F93CF93DF93CDB7DEB72B
:10325000C054D1090FB6F894DEBF0FBECDBF8C01AC
:103260000E94251780915104803909F077C0F80138
:103270008081803F09F0C8C0EE24E394F12C819155
:10328000873F49F02FEFE21AF20A31E0E316F30626
:10329000B1F7F12CE12CD090640480E48D1510F48A
:1032A00060E4D62E80E024E0C22E36E0932E47E084
:1032B000842E55E0752EE114F10409F44FC0A1E00D
:1032C000B0E0AC0FBD1FA80FB11DCC92E1E0E80F3C
:1032D0004E2E512C62E0680F70E043E0480F50E042
:1032E000F80190818C5FF2E0EF16F10409F44DC013
:1032F00023E0E216F10409F45FC031E0E316F104C3
:1033000009F05BC07C925801EFEFAE1ABE0AE1E013
:10331000F0E0EC0FFD1FE40DF51D908321E030E09F
:103320002C0F3D1F620F731FFB011082420F531FB2
:10333000FA011082F12CE12C282F30E08E010F5F72
:103340001F4F4091660460915604809154049091FF
:1033500055040E949210882309F454C0C05CDF4FCA
:103360000FB6F894DEBF0FBECDBFDF91CF911F9196
:103370000F91FF90EF90DF90CF90BF90AF909F9014
:103380008F907F905F904F9008959C92E1E0F0E0E5
:10339000EC0FFD1FE40DF51D90835801F2E0AF0E18
:1033A000B11C21E030E02C0F3D1F620F731FF801AC
:1033B0009181FB019083BACF8C92E1E0F0E0EC0FB9
:1033C000FD1FE40DF51D908321E030E02C0F3D1F23
:1033D000620F731FF8019181FB0190835801F3E0A4
:1033E000AF0EB11C420F531FF8019281FA01908376
:1033F000F3E0EF1AF1088D1508F09ECFE114F10407
:1034000009F49ACF850157CF282F30E094E0359505
:1034100027959A95E1F72983282F207FF22E803F68
:1034200008F0F82E8A83F80181818B8382818C8356
:1034300060E08F2D0E94C6088230B1F08330D9F44D
:10344000F2EFFF1201C089838E010F5F1F4F24E04E
:1034500030E040916604609156048091540490914C
:1034600055040E9492107ACF9F2D9D7F913F09F4C1
:1034700089831C82E9CF1B82FCCFCF93DF9300D0DE
:1034800000D000D0CDB7DEB71C821B8280EF8983CD
:1034900082E58A8380E58D8387EF8E8380911B018F
:1034A0008C83CE0101960E9417196AE070E080E0DB
:1034B00090E00E94B00A26960FB6F894DEBF0FBEC9
:1034C000CDBFDF91CF910895EF92FF920F931F939D
:1034D000CF93DF9330911103311116C0022F7A017F
:1034E000162FEC010E94251780915104803961F458
:1034F000202FA701612FCE01DF91CF911F910F9156
:10350000FF90EF900C948B15DF91CF911F910F914D
:10351000FF90EF9008954F925F926F927F928F92FB
:103520009F92AF92BF92CF92DF92EF92FF920F9352
:103530001F93CF93DF93CDB7DEB7DA950FB6F8942C
:10354000DEBF0FBECDBF3C01162FF42ECE0101967B
:103550004C01A4E0AA2EB12CB4E0CB2ED12C02E079
:10356000E02E042F26E040E8D30112968D919C9125
:103570000E943116811169C04B805C80B1E04B160E
:103580005B0618F0412C55245394FE0131964F01EF
:1035900052016201E2E0EE2E0F2D26E040E8612F9D
:1035A000D30112968D919C910E94311681114DC0CC
:1035B00040E0F401480C591CE415F50508F045C03D
:1035C00050819181943059F09530A1F0923021F4DE
:1035D0009581D30115969C93E50FF11DEDCF958153
:1035E000913089F52681233071F5D30118969C938B
:1035F00041E0F2CF9381D3011D962C91922392301A
:1036000059F792814423D1F021E097FF22E06481B1
:1036100030E0D901AA0FBB1FA20FB31FA60DB71D23
:103620009F701E969C931E971F966C93D3011696BF
:103630009C9116979F5F16969C93CECF23E097FDA3
:10364000E6CF24E0E4CF40E0C7CFD3950FB6F8949F
:10365000DEBF0FBECDBFDF91CF911F910F91FF90C5
:10366000EF90DF90CF90BF90AF909F908F907F9022
:103670006F905F904F9008954F925F926F927F92FC
:103680008F929F92AF92BF92CF92DF92EF92FF9272
:103690000F931F93CF93DF93CDB7DEB762970FB62B
:1036A000F894DEBF0FBECDBFFC0181E8818B128A8A
:1036B00083898E7F8D7F838B81E0848B158A8689B9
:1036C0008E7F8D7F868B848119ED811113C0022F2F
:1036D000442E562E3F01E280F380D701ED91FC91FC
:1036E0000190F081E02D60E0C70109955C01009731
:1036F000C9F416ED812F62960FB6F894DEBF0FBEA7
:10370000CDBFDF91CF911F910F91FF90EF90DF9090
:10371000CF90BF90AF909F908F907F906F905F9071
:103720004F900895FC018080918017ED81149104E1
:1037300009F36301FEE0CF0ED11CDC011196DC928F
:10374000CE9214960C939E012F5F3F4F48E050E0BD
:1037500060E0F301828193810E940A17182FD5013E
:103760008D929C928111F6C0D701ED91FC9102805F
:10377000F381E02D242D40E0652DC7010995F3016B
:10378000848314ED882309F4B5CF98859787682F33
:10379000828193810E94E216182FD701ED91FC914E
:1037A000D50114961C92882359F00480F581E02DF0
:1037B000D30114966C91C7010995F30114829ACF35
:1037C0000190F081E02DD30114966C91C701099509
:1037D000009709F48ECFFC0104839E012F5F3F4FB9
:1037E00042E150E0D30114966C91149712968D919A
:1037F0009C910E940A17182F8111ACC089859A8567
:10380000F301948783878B859C859287818782814A
:1038100093811481C114D10409F49BC0612F0E94CB
:103820004C0EFC01892B09F49EC00A891283D182B7
:10383000C08281E0838383E0D3011D968C931D9722
:103840001B968D919C918533924181F4F301818582
:1038500092858032910531F08135910519F08936D4
:103860009105C9F482E0D3011D968C93F301108673
:10387000F12CF01601F14F2DD30114966C91C30178
:103880000E948B1A182F811165C0F3018681823046
:1038900090F4F394EECF9C0120533109233031058D
:1038A00008F32550310922303105E0F28B57910998
:1038B0000397C0F2DBCFD30116968C911697823016
:1038C00008F453C018968C911897811117C0579619
:1038D0008C91579751968C93519758968C915897F5
:1038E00052968C9352975A968C915A9754968C93E1
:1038F00054975B968C915B9755968C93F30114814A
:10390000612F828193810E944C0EFC01892B29F04A
:103910001283D182C08283E08383912C812CB12CCD
:10392000A12CD12CC12CE12CD30115960C9115970B
:1039300029E040E014966C91149712968D919C9119
:103940000E943116182F811105C081E0F301878391
:10395000D1CE18EDD301ED91FC910480F581E02DDD
:10396000C3010995C7CE16EDF5CF1FEFF3CFDF9258
:10397000EF92FF920F931F93CF93DF93CDB7DEB7F4
:103980002A970FB6F894DEBF0FBECDBF887F6F7049
:10399000E82EE60E4F71F42EEEEFE40F10E000E09B
:1039A000E13128F4F0E0EC58FE4F008110E08AE0AD
:1039B000D82E0D3C1105B0F4D09EB001D19E700DF3
:1039C000112468547D4F4AE050E0CE0101960E94D8
:1039D000B43B8981F81203C08A81E81629F00F5F91
:1039E0001F4FE7CF10E000E0C8012A960FB6F89409
:1039F000DEBF0FBECDBFDF91CF911F910F91FF9022
:103A0000EF90DF900895CF93DF93CDB7DEB72A977D
:103A10000FB6F894DEBF0FBECDBF29E0EBE2F1E0B8
:103A2000A3E3B2E001900D922A95E1F72AE0289FE6
:103A3000B001299F700D112468547D4F4AE050E079
:103A4000CE0101960E94B43B88E0FE013396A3E3C9
:103A5000B2E001900D928A95E1F72A960FB6F8949C
:103A6000DEBF0FBECDBFDF91CF910895DF92EF9201
:103A7000FF920F931F93CF93DF931F92CDB7DEB7C3
:103A800010E080912201181708F0A0C0E12EF12C5F
:103A900001E0010F843008F451C0D12C133018F02C
:103AA00013507BE0D72EC701845A9C4F7C01DC0168
:103AB0008C911F5F612F882309F479C090911C01BC
:103AC000981708F474C08D2D0E947912D701EC91DB
:103AD000F0E0E45DFC4F80818823D9F16FEF87E24D
:103AE00095E00E941213F7014081842F8150990BB9
:103AF0009C01220F331FF901EA5CFC4F8081918108
:103B000020503F4FD9012D913C912817390709F4D6
:103B10004CC020911B012D7F293569F4BC0149302F
:103B2000E8F4625E734F41E050E0CE0101960E94DE
:103B3000B43B898190E00E94031D1EC0602F80E08D
:103B40000E947912C70101960E94AE1162E0D62E42
:103B5000AACF83E092E00E94A111C5CF772733E07E
:103B6000660F771F3A95E1F76253754F48E050E0D2
:103B700083E392E00E94B43B612F81E08D0D0E94AF
:103B8000791283E392E00E94A111F70180818150B4
:103B9000990B880F991FFC01E050FF4F8A5C9C4FE6
:103BA000DC018D919C9191838083102F6ACF8D2DA4
:103BB0000E94791280912201843028F088E092E0FE
:103BC0000E94A111F2CF82E192E0FACF0F90DF9133
:103BD000CF911F910F91FF90EF90DF9008951F9369
:103BE000CF93DF93CDB7DEB765970FB6F894DEBFFE
:103BF0000FBECDBF82E00E94FD1285E1E5E3F1E05A
:103C0000DE01119601900D928A95E1F710918C03D7
:103C100011111AC044E150E064EA72E0CE0101964D
:103C20000E94B43B62E080E00E947912CE010196CE
:103C30000E94A11165960FB6F894DEBF0FBECDBFEE
:103C4000DF91CF911F91089562E089E00E9479127F
:103C5000212F2150330BC9010E94AE11EBCF1F93CE
:103C6000CF93DF93CDB7DEB765970FB6F894DEBF7D
:103C70000FBECDBF60E08BE00E947912809192036D
:103C800090E001960E94AE1182E00E94FD1285E153
:103C9000E5E3F1E0DE01119601900D928A95E1F7DE
:103CA00010918B0311111AC044E150E064EA72E0F4
:103CB000CE0101960E94B43B62E080E00E9479123E
:103CC000CE0101960E94A11165960FB6F894DEBF51
:103CD0000FBECDBFDF91CF911F91089562E089E0C3
:103CE0000E947912812F0E94DE11EECFCF93DF93D5
:103CF000CDB7DEB764970FB6F894DEBF0FBECDBF69
:103D000082E00E94FD1284E1EBE4F1E0DE01119615
:103D100001900D928A95E1F780917D038130E9F061
:103D200098F08230F9F062E080E00E947912CE01D2
:103D300001960E94A11164960FB6F894DEBF0FBEE3
:103D4000CDBFDF91CF91089543E150E063E97FE07B
:103D5000CE0101960E94B43BE6CF43E150E066EA13
:103D60007FE0F6CF43E150E069EB7FE0F1CFCF9306
:103D7000DF93CDB7DEB765970FB6F894DEBF0FBE01
:103D8000CDBF82E00E94FD1285E1E5E3F1E0DE01B6
:103D9000119601900D928A95E1F780917F0344E19D
:103DA00050E06CE772E0811102C064EA72E0CE017B
:103DB00001960E94B43B62E080E00E947912CE013D
:103DC00001960E94A11165960FB6F894DEBF0FBE52
:103DD000CDBFDF91CF9108951F93CF93DF93CDB7E0
:103DE000DEB765970FB6F894DEBF0FBECDBF182FB4
:103DF00082E00E94FD1285E1E5E3F1E0DE0111962B
:103E000001900D928A95E1F7113001F1B0F0123076
:103E100011F1133029F162E080E00E947912CE01A5
:103E200001960E94A11165960FB6F894DEBF0FBEF1
:103E3000CDBFDF91CF911F91089543E150E068E13C
:103E400070E1CE0101960E94B43BE5CF43E150E022
:103E50006BE270E1F6CF43E150E06DE970E1F1CF44
:103E600043E150E060EB70E1ECCF1F93CF93DF9321
:103E7000CDB7DEB765970FB6F894DEBF0FBECDBFE6
:103E800082E00E94FD1285E1E5E3F1E0DE0111969A
:103E900001900D928A95E1F710918D0344E150E075
:103EA00064EA72E0112331F01130D1F444E150E0C2
:103EB00068E672E0CE0101960E94B43B62E080E0C9
:103EC0000E947912CE0101960E94A11165960FB64B
:103ED000F894DEBF0FBECDBFDF91CF911F91089543
:103EE00062E089E00E947912212F2150330BC90131
:103EF0000E94AE11EBCFCF93C82F44E150E085E68E
:103F000093E00E94B43B6C2F80E00E94791285E61A
:103F100093E0CF910C94A1116AEB7AE080E00E94CB
:103F20007B1F60E08FE00E947912809193030C94D4
:103F3000DE111F93CF93DF93CDB7DEB765970FB632
:103F4000F894DEBF0FBECDBF82E00E94FD1285E176
:103F5000E5E3F1E0DE01119601900D928A95E1F71B
:103F600010918E03111123C044E150E064EA72E025
:103F7000CE0101960E94B43B62E080E00E9479127B
:103F8000CE0101960E94A11180919803811105C074
:103F900060E972E082E00E947B1F65960FB6F8949C
:103FA000DEBF0FBECDBFDF91CF911F91089562E0BC
:103FB00089E00E947912212F2150330BC9010E9400
:103FC000AE11E2CF7F928F929F92AF92BF92CF922B
:103FD000DF92EF92FF920F931F93CF93DF9300D066
:103FE00000D000D01F92CDB7DEB7CDB6DEB680913F
:103FF000980344E150E065E97DE0882331F08130A9
:1040000081F444E150E065ED7CE082E193E00E94C0
:10401000B43B62E080E00E94791282E193E00E946A
:10402000A1113BE4E32E32E0F32E85E592E0570147
:1040300020E2F50121935F018E179F07D1F7809150
:104040001103811195C01C821B8280EF898382E558
:104050008A8389E28D8387EF8E8380911B018C8315
:10406000712C82E30E94FE15CE0101960E94171961
:1040700080911B01883511F08136C1F50DB71EB74F
:1040800060911A018DB79EB7861B91090FB6F894FF
:104090009EBF0FBE8DBFEDB7FEB731964F0121E039
:1040A00048EE53E0CF010E94641A882309F456C0F9
:1040B000EBE4F2E024E830E080E0D401A20FB31F8B
:1040C0009C919193A9014F5F5F4F882311F0873036
:1040D00059F42E5F3F4F8F5F8A3079F70FB6F8940F
:1040E0001EBF0FBE0DBF44C09A01F5CF8D7F89352D
:1040F000D9F50DB71EB760911A018DB79EB7861B13
:1041000091090FB6F8949EBF0FBE8DBFEDB7FEB7F5
:1041100031964F0121E048EE53E0CF010E94641A2E
:104120008823E1F080911B018935A9F087E990E0AF
:10413000EBE4F2E020E0D401A80FB91F3C913193E9
:10414000AC014F5F5F4F0296253009F0CA012F5F27
:104150002A3089F7C3CF8EE690E0EACF73940FB68A
:10416000F8941EBF0FBE0DBFF2E0F71508F079CF2F
:1041700083E00E94FD12809198038130A1F460E0F9
:1041800080E00E94791280E292E00E94A1111091D9
:10419000940360E083E11A3008F082E10E94791212
:1041A000812F0E94DE110BE412E020E0F8018191E2
:1041B0008F01803209F02F5F0A151B05B9F784E1E2
:1041C00090E0821B910997FD01969595879563E094
:1041D0000E947912F70161917F0187E295E00E94C8
:1041E000460B0E151F05B1F720911B01809162034C
:1041F0009091630338EA320F323010F0213661F4C7
:104200006AE070E00E94E73B605D6983805D8A83BD
:104210001B8240E067E025C02B3591F763E070E03A
:104220000E94E73B282FCB0101968436910511F4BB
:1042300081E090E037E0EEEFF1E0DE0111960190D1
:104240000D923A95E1F76AE070E00E94D33B605D21
:104250006B83805D8C838DE28D832F5C2E8340E0A9
:1042600062E0CE0101960E9418130FB6F894DEBEEC
:104270000FBECDBE27960FB6F894DEBF0FBECDBFE2
:10428000DF91CF911F910F91FF90EF90DF90CF9032
:10429000BF90AF909F908F907F9008950F931F9342
:1042A000CF93DF93CDB7DEB728970FB6F894DEBF74
:1042B0000FBECDBF009162031091630380913D0258
:1042C00090913E028017910709F465C08091180112
:1042D0008017110611F00CF05EC080911901801753
:1042E00011060CF458C080EC8F8380911B0198EA72
:1042F000980F923010F0813669F4012B31F481E08F
:1043000090E09093630380936203809162038150F5
:10431000888718C08B3589F780EB89831A821B82C6
:10432000CE0101960E94171980E28A83C80163E0DA
:1043300070E00E94E73B182F6B83CE0101960E942C
:1043400017191887CE0107960E94171980916203EA
:104350009091630390933E0280933D0280911B01F4
:104360008B35B9F41C821B8290EF998392E59A8376
:1043700091E59D8397EF9E838C83CE0101960E94E9
:1043800017196AE070E080E090E00E94B00A0E9495
:104390003D1A0E94E21F28960FB6F894DEBF0FBEAA
:1043A000CDBFDF91CF911F910F9108951F93CF93B0
:1043B000DF93CDB7DEB7A3970FB6F894DEBF0FBE7D
:1043C000CDBF90911103911161C0182F19A218A2AD
:1043D00080EF8E8F82E58F8F83E38AA387EF8BA395
:1043E00080911B0189A3CE014E960E94171920E0EF
:1043F00048EE53E068E0CE0146960E94641A882396
:1044000009F444C080911B0198EA980F923018F08B
:10441000813609F045C02D8D30E02F5F3F4F9091E0
:10442000980340913D0250913E024217530719F400
:10443000112309F443C010923C023093630320938C
:10444000620330933E0220933D029230F9F00E94C5
:1044500004140E94E21F85E1E5E3F1E0DE0111961C
:1044600001900D928A95E1F7111108C044E150E0E6
:104470006DEA7CE0CE0101960E94B43B62E080E0F0
:104480000E947912CE0101960E94A111A3960FB647
:10449000F894DEBF0FBECDBFDF91CF911F9108957D
:1044A00030E020E08B3509F0BACF8B8D2D8D30E0D8
:1044B00093E0899F200D311D1124B1CF915092308E
:1044C00028F362E080E00E94791282E193E0DCCF81
:1044D000109298031092970310922A038FEF809303
:1044E00012010E9404140E94E21F6CE271E080E05D
:1044F00090E00C94B00A90913C02981319C08091FE
:104500004E0390914F039093630380936203109244
:104510003C0280919403809312010E944E210E94DC
:1045200004140E94E21F10922C0310922B03089592
:10453000E82FF0E0EE0FFF1FE25BFC4F208131819E
:10454000309363032093620380933C02E2CF7F9217
:104550008F929F92AF92BF92CF92DF92EF92FF9293
:104560000F931F93CF93DF93CDB7DEB729970FB685
:10457000F894DEBF0FBECDBFCDB6DEB644E150E04D
:1045800061EC7CE082E193E00E94B43B62E080E079
:104590000E94791282E193E00E94A11130E4E32E9F
:1045A00032E0F32E8AE492E0570120E2D5012D9308
:1045B0005D018A179B07D1F7809111038111BAC061
:1045C00020911B0188EA820F823010F0213629F4F5
:1045D00010916203115060E00EC02B35E1F780911D
:1045E00062039091630363E070E00E94E73B182F41
:1045F0006436710581F3FE01339685E0DF011D927B
:104600008A95E9F780EF898382E58A8389E08D8343
:1046100087EF89872C836F831887712C82E30E9430
:10462000FE15CE0101960E9417196AE070E080E045
:1046300090E00E94B00A80911B01883511F081360C
:10464000B9F50DB71EB760911701EDB7FEB7E61BC0
:10465000F1090FB6F894FEBF0FBEEDBF8DB79EB740
:1046600001964C0121E040ED57E00E94641A882336
:1046700009F456C0E0E4F2E029E830E080E0D4013B
:10468000A20FB31F9C919193A9014F5F5F4F8823A5
:1046900011F0873059F42E5F3F4F8F5F8A3079F7E2
:1046A0000FB6F8941EBF0FBE0DBF44C09A01F5CFE0
:1046B0008D7F8935D9F50DB71EB760911701ADB75C
:1046C000BEB7A61BB1090FB6F894BEBF0FBEADBFF3
:1046D000EDB7FEB731964F0121E040ED57E0CF0135
:1046E0000E94641A8823E1F080911B018935A9F4A6
:1046F00088E790E0E0E4F2E020E0D401A80FB91FE1
:104700003C913193AC014F5F5F4F0296253009F029
:10471000CA012F5F2A3089F7C3CF8CE990E0EACF36
:1047200073940FB6F8941EBF0FBE0DBFB2E0B7155D
:1047300008F074CF83E00E94FD1200E412E020E054
:10474000D8018D918D01803209F02F5FA016B1063E
:10475000B9F784E190E0821B910997FD0196959548
:10476000879563E00E947912F70161917F0187E2EA
:1047700095E00E94460BE016F106B1F70E94A313E4
:1047800010923F020E94F5130FB6F894DEBE0FBEE2
:10479000CDBE29960FB6F894DEBF0FBECDBFDF9118
:1047A000CF911F910F91FF90EF90DF90CF90BF902E
:1047B000AF909F908F907F900895AF92BF92CF92CD
:1047C000DF92EF92FF920F931F93CF93DF93CDB7BA
:1047D000DEB72A970FB6F894DEBF0FBECDBF082F05
:1047E000CDB6DEB6E82FF0E0E35DFC4F108181E04E
:1047F00018271083F0901B0188E5F81619F091E650
:10480000F91262C0033008F45FC0ADB6BEB68AE0EC
:104810000E94FE151C821B8280EF898382E58A83B9
:1048200089E28D8387EF8E83FC82CE0101960E9400
:10483000171960911A01ADB7BEB7A61BB1090FB623
:10484000F894BEBF0FBEADBF8DB79EB701967C0179
:1048500021E048EE53E00E94641A882391F0E8E5D5
:10486000043021F0ECE6053009F0E3E4EE0DFF2D15
:10487000F11D80811827117018271083C7010E942D
:1048800017190FB6F894BEBE0FBEADBE0E94361DFE
:1048900064E670E080E090E00E94B00A0FB6F89401
:1048A000DEBE0FBECDBE2A960FB6F894DEBF0FBE99
:1048B000CDBFDF91CF911F910F91FF90EF90DF90CF
:1048C000CF90BF90AF900895FE01339688E0DF014E
:1048D0001D928A95E9F780EF898382E58A8381E3D7
:1048E0008D8387EF8A87FC820E831887CE0101961D
:1048F0000E941719CBCF85ED8093BC00809199025F
:1049000090919A02A0919B02B0919C020796A11DE2
:10491000B11D23E0B695A795979587952A95D1F770
:104920002091BC0024FD03C01092E2020895409142
:10493000990250919A0260919B0270919C02452BC2
:10494000462B472B69F30097A105B10541F02AE2F8
:104950002A95F1F700C00197A109B109E1CF809133
:1049600098020C94BF0BCF93DF93EB010E94BD3BE9
:104970008883CE01DF91CF910895FF920F931F930B
:10498000CF93DF931F92CDB7DEB7E0E0F1E080E098
:1049900090E88193919321E0E231F207D1F7009101
:1049A000930386E0089F800111240A5E1C4FF12CBE
:1049B00080912201F81680F4BE016F5F7F4FC8011D
:1049C0000E94B324EF2DF0E0E45AFC4F89818083EC
:1049D0000F5F1F4FF394ECCF0E9404140E948C1FB2
:1049E0000E94361D0F90DF91CF911F910F91FF9084
:1049F0000895FF920F931F93CF93DF938C01EB01E8
:104A0000F8800E94BD3BF81621F06F2DC8010E946E
:104A1000C53BCE01DF91CF911F910F91FF9008957B
:104A20001F93CF93DF9310927A0310927B038150F0
:104A3000990B26E0289FE001299FD00D1124CA5E22
:104A4000DC4F10E080912201181750F4612F70E0C4
:104A5000645A7C4FCE010E94F92421961F5FF2CF49
:104A600061E27EE082E00E947B1F68EE73E080E0FE
:104A700090E0DF91CF911F910C94B00ACF93DF9318
:104A8000CDB7DEB766970FB6F894DEBF0FBECDBFC9
:104A900080911D0190911E019093200180931F0130
:104AA0006AEF70E00E94D33B6E8BBE016A5E7F4F5F
:104AB00082E090E00E94F92481E00E94FD1282E0F1
:104AC0000E94FD1285E1E5E3F1E0DE01119601901F
:104AD0000D928A95E1F744E150E061E27EE0CE017B
:104AE00001960E94B43B61E080E00E947912CE0101
:104AF00001960E94A11162E086E00E947912609105
:104B00001F017091200190E080E04AE00E94531163
:104B100080911D0190911E0162E0883E9340B0F0AB
:104B20008BE00E94791285E092E00E94A11164EF6F
:104B300071E080E090E00E94B00A66960FB6F894AB
:104B4000DEBF0FBECDBFDF91CF9108958AE0E9CFE0
:104B5000CF93DF93CDB7DEB765970FB6F894DEBF7E
:104B60000FBECDBF62E271E081E090E00E94F924C7
:104B700081E00E94FD1282E00E94FD1285E1E5E3E2
:104B8000F1E0DE01119601900D928A95E1F744E182
:104B900050E061E27EE0CE0101960E94B43B61E00C
:104BA00080E00E947912CE0101960E94A11162E07C
:104BB00089E00E947912809122010E94DE1164EF47
:104BC00071E080E090E00E94B00A65960FB6F8941C
:104BD000DEBF0FBECDBFDF91CF910895CF93DF939E
:104BE000CDB7DEB765970FB6F894DEBF0FBECDBF69
:104BF00063E873E090E080E00E94F92481E00E9485
:104C0000FD1285E1E5E3F1E0DE01119601900D92E0
:104C10008A95E1F744E150E061E27EE0CE01019641
:104C20000E94B43B61E080E00E947912CE010196BF
:104C30000E94A11164EF71E080E090E00E94B00A50
:104C400065960FB6F894DEBF0FBECDBFDF91CF9152
:104C50000895FF920F931F93CF93DF93EC018B0185
:104C6000FB01F0800E94BD3BF81621F06F2DCE01B4
:104C70000E94C53BF801F1802196CE010E94BD3B08
:104C8000F81621F06F2DCE010E94C53BC801DF91BF
:104C9000CF911F910F91FF900895CF92DF92EF92E5
:104CA000FF921F93CF93DF93CDB7DEB767970FB611
:104CB000F894DEBF0FBECDBF182F81E00E94FD1219
:104CC00082E00E94FD1285E1E5E3F1E0DE0111964C
:104CD00001900D928A95E1F744E150E069EE7CE0A5
:104CE000CE0101960E94B43B60E080E00E94791200
:104CF000CE0101960E94A111C12CD12C7601112365
:104D000041F01F8A1E8ABE016A5E7F4FC6010E9463
:104D1000292662E088E00E9479124AE0C701B601C4
:104D20000E9453118FEFC81AD80AE80AF80AC11472
:104D300084E0D806E104F10411F710927F0367962E
:104D40000FB6F894DEBF0FBECDBFDF91CF911F919C
:104D5000FF90EF90DF90CF900895CF93DF9300D036
:104D6000CDB7DEB77A83698310927C0310927B0300
:104D70008150990B4EE0489F9001499F300D1124BE
:104D8000255F3F4F90916403892F90E0880F991F12
:104D9000BE016F5F7F4F820F931F0E94292661E241
:104DA0007EE082E00E947B1F68EE73E080E090E08E
:104DB0000E94B00A0F900F90DF91CF9108952F922B
:104DC0003F924F925F926F927F928F929F92AF929B
:104DD000BF92CF92DF92EF92FF920F931F93CF93E8
:104DE000DF93CDB7DEB72B970FB6F894DEBF0FBEBB
:104DF000CDBF2DB63EB60E94041410E0CE0103963E
:104E00009B878A8772E5C72E50912201511708F4BB
:104E100047C1012F42E0F42E543040F00DEF010F56
:104E20006BE0F62E143010F4012FF12C40911B0191
:104E3000612E712C660C771CF301E25BFC4F8081C4
:104E4000918121E04B3509F020E02195022E000CE4
:104E5000330B281739070CF011C128E2422E22E04B
:104E6000522EF20120E2219322E0E233F207D1F741
:104E7000209111032111BDC0209118012817190696
:104E800011F00CF0B6C020911901281719060CF486
:104E9000B0C028EA240F223010F0413629F4DD2476
:104EA000DA94D80E60E007C04B35E1F763E070E0BC
:104EB0000E94E73BD82EEA85FB8525E011922A95D2
:104EC000E9F780EF8983CA8299E09D83E7EFE9875C
:104ED0004C836F83D886E12C8AE00E94FE15CE01B8
:104EE00001960E9417196AE070E080E090E00E944D
:104EF000B00A80911B01883511F08136C1F5ADB63D
:104F0000BEB6609117018DB79EB7861B91090FB68B
:104F1000F8949EBF0FBE8DBFEDB7FEB731964F011F
:104F200021E040ED57E0CF010E94641A882309F484
:104F300056C029E830E080E0F401E20FF31F9081D1
:104F4000F20191932F01A9014F5F5F4F882311F068
:104F5000873059F42E5F3F4F8F5F8A3069F70FB665
:104F6000F894BEBE0FBEADBE44C09A01F5CF8D7F92
:104F70008935D9F5ADB6BEB6609117018DB79EB72C
:104F8000861B91090FB6F8949EBF0FBE8DBFEDB77B
:104F9000FEB731964F0121E040ED57E0CF010E946E
:104FA000641A8823E1F080911B018935A9F488E710
:104FB00090E020E0F401E80FF91F3081F201319315
:104FC0002F01AC014F5F5F4F0296253009F0CA01F7
:104FD0002F5F2A3079F7C3CF8CE990E0EACFE394D2
:104FE0000FB6F894BEBE0FBEADBEF2E0FE1508F0DF
:104FF00073CF80912201843090F1602F8F2D0E9419
:1050000079128AE0E82E83E092E00E94A111EA94EE
:10501000E110F9CF602F81E08F0D0E94791280910D
:105020001103811123C0809122018430E0F089E0D6
:10503000EBE2F1E0DE01119601900D928A95E1F725
:1050400088E0E8E2F2E0DE01119601900D928A9587
:10505000E1F7CE0101960E94A1111F5FD5CE802FEE
:105060000E94FD12D7CF88E292E0F5CFF301E25B18
:10507000FC4F808191810E94AE11EFCF543060F0DF
:10508000602F8F2D0E9479120AE083E092E00E9447
:10509000A1110150D1F7E1CF802F0E94FD12DDCF89
:1050A000909112018091940398130DC060913C027D
:1050B000643048F163508BE00E9479126FEF87E211
:1050C00095E00E9412130E94D3120FB6F8943EBED0
:1050D0000FBE2DBE2B960FB6F894DEBF0FBECDBF10
:1050E000DF91CF911F910F91FF90EF90DF90CF90C4
:1050F000BF90AF909F908F907F906F905F904F90F8
:105100003F902F90089582E05430B0F280E0D4CFE9
:10511000FF920F931F93CF93DF9300D0CDB7DEB7ED
:10512000009194038EE0089F80011124055F1F4FBA
:10513000F12C809122018F15F0F0C8010E94BD3B37
:105140008983C80101960E94BD3B8A8329813A81E7
:105150008F2D90E0880F991F825B9C4FFC011216E7
:10516000130634F4318320830E5F1F4FF394E1CF95
:1051700011821082F9CF0F900F90DF91CF911F9184
:105180000F91FF900C94DF260E9404141092950357
:1051900010929903109291038091980381110AC093
:1051A0000E94E21F10922A036CE271E080E090E01E
:1051B0000C94B00A813019F40E948828F3CF823011
:1051C00089F70E94BD24EECF80911103811109C09F
:1051D00081E090E0909349038093480382E08093BC
:1051E00098030C94C42881E090E090934903809345
:1051F0004803809398038093970310923C0288E3BE
:1052000097EC90932C0380932B030C94C4288091EB
:105210009803811102C00C94F328813011F40C948E
:10522000E428823011F40C94682208951F920F92A2
:105230000FB60F9211242F933F938F939F93AF93A9
:10524000BF9380919B0390919C03A0919D03B0918B
:105250009E0330919A0323E0230F2D3758F50196D2
:10526000A11DB11D20939A0380939B0390939C03EF
:10527000A0939D03B0939E0380919F039091A00300
:10528000A091A103B091A2030196A11DB11D80932D
:105290009F039093A003A093A103B093A203BF9197
:1052A000AF919F918F913F912F910F900FBE0F90D3
:1052B0001F90189526E8230F0296A11DB11DD2CF8D
:1052C0001F920F920FB60F9211242F933F934F937B
:1052D0005F936F937F938F939F93AF93BF93EF935E
:1052E000FF93E0911501F09116010995FF91EF915F
:1052F000BF91AF919F918F917F916F915F914F91EE
:105300003F912F910F900FBE0F901F9018951F92F5
:105310000F920FB60F9211242F933F934F935F93E9
:105320006F937F938F939F93AF93BF93EF93FF936D
:10533000E0911301F09114010995FF91EF91BF9154
:10534000AF919F918F917F916F915F914F913F911D
:105350002F910F900FBE0F901F9018951F920F92D4
:105360000FB60F9211242F933F934F935F936F9338
:105370007F938F939F93AF93BF93EF93FF9388EAAD
:1053800093E00E943709FF91EF91BF91AF919F91F8
:105390008F917F916F915F914F913F912F910F90DE
:1053A0000FBE0F901F9018951F920F920FB60F927D
:1053B00011242F938F939F93EF93FF93E091B80362
:1053C000F091B9038081E091BE03F091BF0382FDAB
:1053D0001BC090818091C1038F5F8F732091C203A6
:1053E000821741F0E091C103F0E0E855FC4F958F42
:1053F0008093C103FF91EF919F918F912F910F9017
:105400000FBE0F901F9018958081F4CF1F920F92BE
:105410000FB60F9211242F933F934F935F936F9387
:105420007F938F939F93AF93BF93EF93FF9380915D
:10543000B900887F803609F44AC0F0F5883209F453
:10544000A7C018F5803109F49BC0B8F4882309F48B
:10545000F9C0883009F494C0FF91EF91BF91AF91EA
:105460009F918F917F916F915F914F913F912F917C
:105470000F900FBE0F901F901895883109F488C0C7
:10548000803251F78093E10214C0803409F49DC04A
:1054900040F48033B9F38833F9F68093E10285EC68
:1054A000B0C0803509F485C0883509F496C08834C9
:1054B00099F60E947B24D0CF883909F48CC038F546
:1054C000883729F050F4883611F0803729F683E0C8
:1054D0008093E2021092E00257C0883809F47BC042
:1054E000803919F0803809F0B7CF8091E00280321E
:1054F00008F071C0E091E00281E08E0F8093E0023D
:105500008091BB00F0E0E054FD4F80833DC0803BC4
:1055100039F0E0F4803A09F479C0883A09F09CCF78
:1055200084E08093E2021092BF021092BE02E091EA
:105530000A03F0910B0309958091BE0281110FC0FF
:1055400081E08093BE0210929E0209C0803C09F463
:10555000A6CF883C09F4A3CF883B09F07DCFE0912A
:10556000BF0281E08E0F8093BF02F0E0E256FD4F54
:1055700080818093BB009091BF028091BE0229C0C0
:10558000809107038093BB0085EC8093BC0064CFBF
:105590009091060380910503981758F5E091060352
:1055A00081E08E0F80930603F0E0EB51FD4F808188
:1055B000E9CFE091060381E08E0F8093060380918E
:1055C000BB00F0E0EB51FD4F80839091060380918A
:1055D00005039817C8F285E8D8CFE091060381E06B
:1055E0008E0F809306038091BB00F0E0EB51FD4FDE
:1055F00080838091E40281115CCF81E08093E3029B
:1056000084EA8093BC001092E20226CF85EC80935E
:10561000BC001092E2028091E002803230F4E0910E
:10562000E002F0E0E054FD4F10826091E00270E093
:10563000E0910803F091090380EC92E00995109243
:10564000E0020ACF1092E10234CF1092AB03109225
:10565000AA0388EE93E0A0E0B0E08093AC039093BF
:10566000AD03A093AE03B093AF0329E831E03093CC
:10567000A9032093A80325EC30E03093B5032093D1
:10568000B40324EC30E03093B7032093B60320EC4E
:1056900030E03093B9032093B80321EC30E030932D
:1056A000BB032093BA0322EC30E03093BD03209378
:1056B000BC0326EC30E03093BF032093BE0310926E
:1056C000C1031092C2031092C3031092C40310923C
:1056D0004804109247048093490490934A04A0938D
:1056E0004B04B0934C048BE991E090934604809373
:1056F000450410922A05109229058DEC91E09093B3
:1057000028058093270587E280932B0584E1809309
:10571000300584E0809331051092320583EC91E0EE
:105720009093B1048093B0041092B80481E0809308
:10573000B9041092BA0482EB94E09093B70480937A
:10574000B6041092B20488E08093B3048CE3809393
:10575000B4041092B504E0EBF4E081E022EB34E015
:1057600015868687178634872387359694E0EB3F26
:10577000F907B1F71092260591E1909351042DEAB3
:1057800031E0309353042093520420EB34E0309303
:105790005504209354041092560480935804109298
:1057A000590410925A041092AF041092600488E0D9
:1057B000809361048091620483708C63809362049F
:1057C0001092630410926404809165048370846075
:1057D00080936504109266041092670480916804B7
:1057E00083708460809368041092690410926A0444
:1057F00080916B048370846080936B0410926C04BE
:1058000010926D0480916E048370846080936E04A6
:10581000E6E0F5E090E080E021913191232B51F416
:10582000880F991FFC01EA5FFA4F82E594E09183AB
:105830008083089501968031910571F70895CF9383
:10584000DF93CDB7DEB7E5970FB6F894DEBF0FBE96
:10585000CDBF789484B5826084BD84B5816084BDF9
:1058600085B5826085BD85B5816085BD80916E00FE
:10587000816080936E00109281008091810082602F
:10588000809381008091810081608093810080916C
:1058900080008160809380008091B100846080935B
:1058A000B1008091B00081608093B00080917A0057
:1058B000846080937A0080917A00826080937A007D
:1058C00080917A00816080937A0080917A0080686C
:1058D00080937A001092C10060E085E00E945A0A2D
:1058E00060E083E00E945A0A60E084E00E945A0A65
:1058F00060E081E10E945A0A60E08EE00E945A0A4C
:1059000060E08FE00E945A0A60E080E10E945A0A3B
:1059100060E082E00E945A0A60E086E00E945A0A33
:1059200060E087E00E945A0A8FEE9AE0909314019B
:1059300080931301809169008C7F8160809369005E
:10594000E89A82E00E94030A21E0892B09F420E012
:105950002093270310928A031092890310920F0359
:1059600010920E0310920D0310920C030E94A10BD3
:1059700083E49BE090930B0380930A0384E49BE011
:10598000909309038093080310922C0580913105B0
:10599000823018F098E090932C0580932F0562E3F5
:1059A00070E080E090E00E94B00A6091320587E2EA
:1059B00095E00E94660C68EE73E080E090E00E9443
:1059C000B00A60E387E295E00E9449120BE416E416
:1059D000C8010197F1F760E387E295E00E94491260
:1059E000C8010197F1F760E387E295E00E94491250
:1059F00083E592E00197F1F760E287E295E00E948B
:105A0000491260912C05606240E087E295E00E94B7
:105A1000621284E080932D0540E06CE087E295E01F
:105A20000E94621240E061E087E295E00E9462120B
:105A30000BE31FE1C8010197F1F782E080932E0587
:105A400040E066E087E295E00E94621240E062E09A
:105A500087E295E00E946212C8010197F1F788E0A1
:105A60008093320560E087E295E00E94660CD12CBD
:105A7000C12CB12CAE014F5F5F4F7A01DA0190E08B
:105A800080E0142F0F2D96012350334FF901E80FBA
:105A9000F91FE491ED93019688309105B9F7B3941D
:105AA0006B2D677058E0659FB0011124606440E081
:105AB00087E295E00E946212470188E0880E911CFF
:105AC000F70161917F0187E295E00E9412138E1425
:105AD0009F04B1F728E0C20ED11C38E0B312CACF40
